:1000000000800020BD010000792600004526000088
:100010004526000045260000452600004526000034
:1000200045260000452600004526000079260000F0
:1000300079260000452600007926000035260000BC
:100040007926000079260000792600007926000034
:100050007926000079260000792600007926000024
:100060007926000079260000792600007926000014
:100070007926000079260000792600007926000004
:1000800079260000792600007926000079260000F4
:1000900079260000792600007926000079260000E4
:1000A000116700001D670000792600007926000016
:1000B00079260000792600007926000079260000C4
:1000C00079260000792600007926000079260000B4
:1000D00079260000792600007926000079260000A4
:1000E0007926000079260000792600007926000094
:1000F00079260000413F000079260000FD45000000
:1001000079260000FD4A00007926000079260000CB
:100110007926000079260000792600007926000063
:100120007926000079260000792600007926000053
:100130007926000079260000792600000D91000044
:100140007926000079260000792600007926000033
:100150007926000079260000792600007926000023
:1001600079260000F52B0000792600007926000092
:100170007926000079260000792600007926000003
:1001800079260000792600007926000079260000F3
:1001900079260000792600007926000079260000E3
:1001A00079260000792600007926000079260000D3
:1001B0007926000079260000FD200000564B4CF205
:1001C000205210B51A804DF628121A8000BF00BFC9
:1001D00002F056FA514B4FF010621A60504A9A6082
:1001E000504ADA60A3F53043203B1A6812F480725B
:1001F00004D14D490A604FF4A8521A604B4B1A784B
:10020000110703D51A7842F008021A70484B2A22C7
:100210001A700023474A48499818884204D247492F
:10022000595899500433F5E7454A464B9A424FF0E6
:10023000000302D242F8043BF7E74349434A5958C6
:1002400099500433B3F5DE7FF7D1414B802103F899
:10025000011B40498B42F9D13F4B1A603F4B8A2228
:100260001A70A3F5805324225A70A0221A709A792A
:100270009207FCD59A79D406FCD4394B9A7902F0CE
:100280000C02082AF9D105221A7143225A719A796F
:100290009006FCD5324B9A795106FBD5314A4FF086
:1002A000817111600521516020221A702C4B9B79BD
:1002B00003F00C030C2BF9D12B4B2C4A1A602C4B5E
:1002C0002C4A1A6000225A60072243F8042C2A4A5A
:1002D000C3F80C2D62B602F071FB134B1B68DA07F2
:1002E00005D5264802F074FA254B264A1A60264B9B
:1002F0001B785B0609D5224C224A2368934204D11D
:100300001E4802F065FA002323600AF09BFC02F00D
:10031000BDF902F0CBF8FEE70E2005403080044026
:10032000823F04000100002B14D0034002D007409C
:1003300000E00740609BFF1FB4A7FF1F10CE000026
:10034000B8A7FF1FA0C3FF1F000000000092FF1FFF
:1003500000E400E05FE400E008ED00E0005006404B
:10036000004006404480044004800440C010050062
:1003700014E000E03F19010000002020508D6C596E
:100380001CE00340A5C3945A00F00740FFFFFFFFA5
:10039000FFFFFFFFFFFFFFFFFFFFFFFFFFFFFFFF6D
:1003A000FFFFFFFFFFFFFFFFFFFFFFFFFFFFFFFF5D
:1003B000FFFFFFFFFFFFFFFFFFFFFFFFFFFFFFFF4D
:1003C000FFFFFFFFFFFFFFFFFFFFFFFFFFFFFFFF3D
:1003D000FFFFFFFFFFFFFFFFFFFFFFFFFFFFFFFF2D
:1003E000FFFFFFFFFFFFFFFFFFFFFFFFFFFFFFFF1D
:1003F000FFFFFFFFFFFFFFFFFFFFFFFFFFFFFFFF0D
:10040000FFFFFFFFFFFFFFFFFFFFFFFFDEF9FFFF23
:1004100010B5054C237833B9044B13B10448AFF33E
:1004200000800123237010BDB8A7FF1F000000004B
:1004300010CE000008B5064B1BB106480649AFF3C5
:1004400000800648036813B1054B03B1984708BD07
:100450000000000010CE0000BCA7FF1FB4A7FF1FC4
:100460000000000010B504460846074909F0C8FE20
:10047000064909F0BDFD0AF0AFF801462046BDE887
:10048000104006F0ABBA00BF00000143EE7CFF3E17
:1004900010B5044A044640F8182B04F0B5FD204678
:1004A00010BD00BFB8BC0000184B1B7810B55BBB7B
:1004B000174807F077F868B1154807F088F8044640
:1004C000134807F076F8201A272803D8114807F0B8
:1004D00069F8A8B10F4807F065F8A8B10D4807F012
:1004E00076F804460B4807F064F8201A27280BD842
:1004F000074807F057F838B9074B01221A7003E094
:10050000054B02221A70E5E710BD00BFD39CFF1F08
:10051000F0A7FF1F74AAFF1FBCB0FF1F10B5014654
:10052000044806F00FFE0446052002F031FA20468A
:1005300010BD00BFF0A7FF1F0F4B036000234172E7
:1005400002610372C360427A934205DA02690021B4
:1005500042F823100133F6E7084A13680BB910601C
:1005600004E05A690AB11346FBE75861002343616E
:100570008380C380704700BFD0B1000058B1FF1F17
:1005800038B5044608460D460AF04AFC2368024680
:100590005B6820462946984738BD08B503681B6844
:1005A000984708BD08B5FFF7EBFF08BD38B504460E
:1005B000FFF7E6FF0546204601F0ECFD284438BD74
:1005C00010B50421044600F12802FFF7B5FF054BE2
:1005D00023604FF48033A361E361236263622046AA
:1005E00010BD00BF88BC0000002110B50A460446BB
:1005F000FFF7A2FF2046054B40F8183B04F0F4FC3F
:10060000204606F05DFD204610BD00BFB8BC0000CE
:10061000144B012210B51A6009F09EFD01461248E4
:1006200009F0A2FE0021044609F09CFF28B12046F3
:100630004FF07C5109F0DCFC04E020464FF07C5187
:1006400009F0D4FC09F0A2FF084B48F6A372013868
:10065000186043F8042C064A43F8042C40F20112B7
:10066000DA6010BD0C6003404054094C0460034044
:10067000A28F010070B5214C06460FCC9CB06D4690
:100680000FC50FCC0FC50FCC0FC594E8030004F1C4
:10069000080385E8030040340EAD186859682A46FF
:1006A00003C20833A3421546F7D1154B4FF08042E1
:1006B0001A6000235DF8232096424FEA830112D18D
:1006C000104B1B68002BFBDB1CAB0B4413F8382CC6
:1006D00033F8363C013A013BC3F30B03D2B243EA91
:1006E0000232094B07E001330E2BE3D103F1E02383
:1006F0004FF08042FA331A601CB070BDD8B10000D0
:1007000088E100E000F1024004F1024008B53B4BF3
:100710004FF080421A60052867D8DFE800F003290F
:1007200035414D5C1420002102F062F80023344969
:10073000194400228A61334919448A6132491944B3
:100740008A61324919448A61314919440433102BB2
:100750008A61ECD12F4B30489A61304BDA6206F057
:10076000C5FC2F4806F0C2FC2E4807F0A7FB3FE06F
:100770000020FFF7CBFF254A4FF480339361D3610C
:10078000214A9361D36122E00020FFF7BFFF1D4A99
:100790004FF48033D3611A4AD3611D4A936127E035
:1007A0000020FFF7B3FF1B4A4FF480339361154AD3
:1007B0001362134A13621BE00020FFF7A7FF174ADA
:1007C0004FF48033D362114A13620F4A13620D4A09
:1007D00093610B4AE2E70020FFF798FF094A4FF4C4
:1007E00080335362064A536202E00020FFF78EFF17
:1007F0000D4B4FF080421A60012008BD88E100E0F7
:1008000048B0FF1F84B0FF1FF8ADFF1F88AFFF1F68
:10081000D0AFFF1F04B1FF1FF0A7FF1F24B1FF1FC0
:1008200074AAFF1F88ADFF1F08E100E037B5054639
:10083000142221480C46002108F01AF81E48032112
:1008400008F019F8092D1D4B07D104F10C021A48C4
:1008500053F82210FFF7A6FE0AE053F824101648BA
:10086000FFF7A0FE144829460A22002301F0A2FC4B
:100870001148022107F0FFFF32220F48002107F044
:10088000F7FF0C2303FB05440D4B53F8240009F03C
:100890009BF80B46022102460091074801F0CCFC70
:1008A00008490548FFF77EFE0348012103B0BDE873
:1008B000304007F0E0BF00BF0CB0FF1F409CFF1F9F
:1008C00058AE000048B2000010B50E4C142220466D
:1008D000192107F0CDFF20460B49FFF767FE2046A0
:1008E00023220A2107F0C4FF20460849FFF75EFED5
:1008F00020462321322207F0BBFF20460449FFF7A0
:1009000051FE10BD0CB0FF1F4BB2000059B20000E9
:100910006BB2000010B50E4C14222046002107F0E7
:10092000A7FF20460B49FFF741FE20462322002166
:1009300007F09EFF20460849FFF738FE20460021B9
:10094000322207F095FF20460449FFF72BFE10BD29
:100950000CB0FF1F75B2000084B2000092B200001C
:1009600038B5134C134D14222046002107F080FFA8
:1009700020461149FFF716FE2046102101F052FCD7
:1009800029462046FFF70EFE23222046002107F0CD
:100990006FFF20460949FFF705FE204645F2F0515A
:1009A00001F040FC20462946FFF7FCFD38BD00BFA2
:1009B0000CB0FF1F48B20000A9B20000B1B20000A5
:1009C00007B545F2F0530090019110224FF07E518F
:1009D000034807F027F9012003B05DF804FB00BFCE
:1009E00088ADFF1F10B5024651B101290CD1114647
:1009F000074806F0A7FB0446052001F0C9FF04E004
:100A0000BDE81040FFF78ABD0024204610BD00BF9E
:100A100074AAFF1F632810B50CD80A21B0FBF1F2AD
:100A2000054B02F1300401FB120230321C715A7185
:100A3000012010BD002010BDC89CFF1F09280DD843
:100A400002290BD8012903D1064B3030587107E039
:100A5000022905D1034B3030187101E000207047A6
:100A600001207047C89CFF1F38B5104B104C1D78F3
:100A70009DB92378DBB2012B02D0022B04D038BD04
:100A80000C48FFF74BFD03E00A480121FFF7AAFFDE
:100A9000052001F07DFF257038BD074806F026FBD4
:100AA000064806F023FB0023237038BDD39CFF1FAC
:100AB000BCB0FF1FC89CFF1FF0A7FF1F74AAFF1F39
:100AC000052970B504460D462DDC184909F054FD82
:100AD00008B1032D27DC20464FF07C5109F090FB34
:100AE000134B5E5D134D47F6FF732B8300210446C5
:100AF00009F024FD30B920460F4909F03DFD10B141
:100B00000D4C00E0002420460C4909F079FB4FF021
:100B10007C5109F06DFA09F05FFD0023A862EB61DA
:100B2000AE85012070BD002070BD00BF0000FA45F9
:100B3000AEB30000C0B0FF1FA655AC464B243E47E5
:100B40002DE9F04F85B001F06DFCB24BB24A1B7835
:100B50001278B24EB248B34FB34DDFF878B3DFF836
:100B60007893DFF87883DFF878A30C2101FB023259
:100B7000AE4BAF4953F82220AE4B1A6004230093CA
:100B80000193AD4AAD4B04F087F800210A46304688
:100B9000FFF7D2FCAA4AAB4B33601388AA48591C12
:100BA0001180AA4A02FA83F30024B36140F6CC43D1
:100BB000F3613362746286F82840FFF715FD394609
:100BC0002A46A14808F06EFDA148FFF70DFD394601
:100BD0002A469F489F4DA04F08F064FD9F48FFF7AD
:100BE000EFFC5846FFF7ECFC9D4B02932146224652
:100BF0001846FFF7A1FC029B9A4A1A60214622463A
:100C0000284683F84C4083F84D400293FFF794FC4C
:100C1000954A2A602146224648462C836C83EC6123
:100C20002C62AC62AC85EC852C63FFF785FC8F49A8
:100C30008F4AC9F800200A88C9F818400132404696
:100C40000A80C9F81C20FFF7BBFC8A48FFF7B8FCF4
:100C50003846FFF7B5FC02210AF118025046FFF7AB
:100C60006BFC854ACAF80020504606F0A5F9DFF86B
:100C700074C2CDF80CC001210CF118026046FFF7D8
:100C80005BFCDDF80CC07D4ACCF800206046CDF856
:100C90000CC005F0A7FF7A484FF0020280E8400838
:100CA00004724272C46001F0FEF976486B4A4260F9
:100CB0004FF00202066004724272C46001F0F3F960
:100CC0007148614A0472012680E804084672C460D3
:100CD00001F0E9F96D485C4A0260604A42600672C0
:100CE0004672C46001F0DFF96948594A047280E82D
:100CF00004084472C46001F0D6F96648544A0260A0
:100D0000564A426006724472C46001F0CCF9534AFC
:100D1000614880E8840004724472C46001F0C3F941
:100D20005E48C0F800B0C0F8048004724472C46029
:100D300001F0B9F9029B5A484FF0030B80E8080113
:100D4000047280F809B0C460029301F0ACF9029B10
:100D5000544880E88800047280F809B0C46001F04B
:100D6000A2F9514880E8200104724672C46001F083
:100D70009AF94E4880E8A00004724672C46001F0FF
:100D800092F94B483B4B4360056004724472C46067
:100D900001F089F947484FF002024272C0F8009012
:100DA000C0F804800472C46001F07DF942484FF03D
:100DB00002034372C0F8009047600472C46001F0FF
:100DC00072F93E4880E8000504724472C46001F084
:100DD0006AF93B48DDF80CC0264A0260C0F804C03E
:100DE00004724472C46001F05EF9364880E8800401
:100DF00004724672C46001F056F9334B334A3448EA
:100E00001A604FF0FF310A221A7205B0BDE8F04FA8
:100E100007F094BFA49CFF1FD49CFF1F24B1FF1FA9
:100E200040AEFF1F910400003C9CFF1F58AE000025
:100E3000AC9CFF1F54B1FF1FBC9CFF1FC09CFF1F39
:100E40005AC3FF1FC8BC000074AAFF1FF541ED5E26
:100E5000F0A7FF1FC0B0FF1F84B0FF1F88AFFF1FA8
:100E600088ADFF1FD8BF0000E8BF00005CC3FF1FB4
:100E7000F8BF0000D0AFFF1FA8BC000098BC000066
:100E800030AEFF1FC0AFFF1F14AFFF1F24AFFF1F07
:100E900034AFFF1F44AFFF1F54AFFF1F64AFFF1FEE
:100EA00074AFFF1FF8ACFF1F08ADFF1F18ADFF1F89
:100EB00028ADFF1F38ADFF1F48ADFF1F58ADFF1F06
:100EC00068ADFF1F78ADFF1FF8B0FF1F68BC0000C2
:100ED0000CB0FF1FF8ADFF1F04B1FF1F48B0FF1F8C
:100EE000D8ADFF1FD4A7FF1F37B5094C204607F028
:100EF000CCFC0546204607F0CBFC00210090019178
:100F000020460B222B4607F087FA03B030BD00BF06
:100F10000CB0FF1F13B5FFF7E7FF14222448002190
:100F200007F0A6FC23492248FFF740FB2048022196
:100F300007F0A1FC20491E48FFF734FB1C480121A3
:100F400007F099FC1D4806F02DFB48B11B4806F040
:100F50003EFB09F0FDF81A4909F006FA044600E0E4
:100F60000024184806F01EFB40B1164806F02FFB7F
:100F700009F0EEF8124909F0F7F9044632220C485C
:100F8000002107F075FC10490948FFF70BFB2046CC
:100F900008F01AFD0B46022102460091044801F0B8
:100FA0004BF90A490248FFF7FDFA02B010BD00BF35
:100FB0000CB0FF1FB9B20000C89CFF1FF0A7FF1FB5
:100FC00000007A4474AAFF1FC3B20000CDB2000033
:100FD00010B5104806F08AF80F4806F087F80F4B56
:100FE000002201201A70FFF791FB0D48FFF796FAD7
:100FF000044618B1BDE81040FFF78CBFFFF774FF3F
:1010000021460848232207F033FC07490548FFF72B
:10101000C9FA10BDF0A7FF1F74AAFF1FBCB0FF1FC5
:10102000C89CFF1F0CB0FF1FCFB200003038C0B209
:10103000092870B51CD80F4D2C78012C0DD004D385
:10104000022C4FF001060ED005E0FFF7E3FCFFF79E
:10105000BFFFFFF75FFF012070BD2146FFF7EEFCE9
:1010600002232B70F7E72146FFF7E8FC2E70F2E72A
:10107000002070BD80B0FF1F05287FB5054616D83B
:10108000002408260B4800966E2122461023019466
:1010900007F0C2F910238DE8480001230293064BA4
:1010A00004486E21224603EB051307F0FBF904B058
:1010B00070BD00BF0CB0FF1FB4B3000037B50D4CBE
:1010C00000253F2108238DE8280020460B462A46AC
:1010D00007F0A2F920462A463F2107F0C9FB064B3C
:1010E0001A78064B204653F82210FFF75BFA03B03C
:1010F00030BD00BF0CB0FF1FD39CFF1F949CFF1F8F
:10110000012837B5044601D0431C20D11725002300
:101110000193009514230F4864210C2207F07CF9F9
:101120002A460C48672107F0A3FB0221094807F073
:10113000A2FB002CCCBF192118210648FFF72DFA7D
:101140000448012103B0BDE8304007F094BB03B070
:1011500030BD00BF0CB0FF1F10B50446FFF7AEFF57
:10116000FFF7C2FE032C39D8DFE804F0102C020888
:10117000FFF7BAFEBDE81040FFF7CCBBFFF7F0FB6E
:10118000174BBDE810401868FFF7BABF1422154886
:10119000002107F06DFB14491248FFF703FA2322E0
:1011A0001048002107F064FB10490E48FFF7FAF9D8
:1011B0000C480021322207F05BFB0D490948FFF77C
:1011C000F1F910BD0B4B18780B4B1978FFF72EFB7C
:1011D0000A4BBDE810401878FFF74EBF10BD00BFA6
:1011E000C49CFF1F0CB0FF1FE1B20000F5B200006D
:1011F00082B10000D49CFF1FA49CFF1F0AB0FF1FF8
:101200002338F8B5212800F21D83DFE810F03802FA
:101210001B031B031B031B031B031B038C021B036E
:101220001B031B031B031B030F02B200CE00F300C2
:101230000C012E014F019F01CA01F6011B031B0384
:101240001B031B031B031B031B0322003B0050005B
:10125000A400AB4BAB4A01241C70AB4B12780025A9
:101260001D70AA4B1B780C2101FB0232A84B53F8CE
:101270002200A84B1860A84BB3F90010FFF720FC20
:10128000A64870E09E4B03241C709F4B00201870F2
:10129000FFF73CFAA148FFF7EDF9A14B1A6802F0FD
:1012A00067021A602046BDE8F840FFF755BF964B2D
:1012B000934F9C4E002420461C703C70FFF726FA8A
:1012C0004AF65540FFF7D6F9FFF7F8FEFFF70CFE98
:1012D00035787DBB0A2003F0E1FF0446E8B93070A1
:1012E000FFF702FE14229048214607F0C1FA8F4909
:1012F0008D48FFF75BF98E498B48FFF757F98D4909
:101300008948FFF753F9884807F09AFE4FF4FA60CE
:1013100001F03EFB01203870C5E7012328463370F9
:10132000FFF71AFF7E4B1A6802F067021A60824AC2
:10133000156009E02046FFF70FFF794B1A6802F0AD
:1013400067021A607C4A14601A6802F0470242F091
:1013500028021A60F8BD6A4B02241C706A4B0025F3
:101360001D704AF65540FFF785F92846FFF7CEF97C
:1013700093E7634B1B78032B00F26482DFE803F0F2
:10138000090B020403201AE00520FFF7BFF96B48A0
:101390001DE0312022E05B4D5C4C09232B700023C3
:1013A00023705B4BD3F8B00158E1554B1B78032BEE
:1013B00000F24882DFE803F0111602070420BDE8BE
:1013C000F840FFF7A3B90520FFF7A0F95C485D4B93
:1013D0001968BDE8F840FFF7F3BA3220BDE8F840DD
:1013E000FFF724BE474C23780133DBB2082B88BFBC
:1013F0000823E9E0424B1B78012B0BD008D3032BC9
:1014000040F020820520FFF781F94FF07C50DEE7A5
:101410003320E3E73D4C3B4D23703D4B09222A70BE
:10142000D3F8B4011AE1364B1B78012B0BD008D34B
:10143000032B40F007820520FFF768F94FF07E503C
:10144000C5E73420CAE7314C23780BB1013B237048
:1014500023782C4D002B49D12B78002B46D02B4ADA
:101460000B211170013B2B7040E0254B1B78012BA9
:101470000BD008D3032B40F0E5810520FFF746F998
:101480004FF08040A3E73520A8E7204C1D4D0923ED
:10149000237004232B701E4BD3F8E4001D4B1860FF
:1014A0001D4BB3F90010FFF70BFBE0E0144B1B786A
:1014B000012B0AD007D3032B40F0C4810520FFF78E
:1014C00025F9214883E7362088E7104C0D4D237815
:1014D0000133DBB20B2B237008D92B78072B03D8F1
:1014E000002222700133BEE70B23237023782A7871
:1014F0000C2101FB0232064B53F82200CEE700BF5D
:10150000D39CFF1FD49CFF1F80B0FF1FA49CFF1F14
:1015100058AE000054B1FF1F0AB0FF1FAA580100C7
:1015200000900340F4B0FF1F0CB0FF1F09B3000090
:101530001AB300002DB3000004900340CDCCCC3D85
:10154000CDCC4C3EC49CFF1F00002041A84B1B7813
:10155000012B0AD007D3032B40F074810520FFF73D
:10156000D5F8A44833E7372038E7A34DA34C092327
:101570002B70A34BD3F8B801A24B1860A24B0226E4
:10158000B3F900102670FFF79BFA40B90020FFF76F
:10159000BDF8FFF7A9FCBDE8F840FFF795B9304664
:1015A00066E0934B1B78012B0AD007D3032B40F046
:1015B00049810520FFF7AAF8944808E738200DE78D
:1015C0008D4C23780BB1013B23708C4D22782B7806
:1015D0000C2101FB02328A4B53F82200894B186020
:1015E000894BB3F90010FFF76BFA0220FFF78EF872
:1015F000FFF77AFC20782978F5E07D4B1B78012BEA
:101600000AD007D3032B40F01D810520FFF77EF899
:101610007F48DCE63920E1E6774D784C09232B70D2
:1016200003232370764BD3F8BC0117E0704B1B7873
:10163000012B0AD007D3032B40F004810520FFF7CC
:1016400065F87448C3E63020C8E66B4D6B4C09233F
:101650002B70042323706A4BD3F8C001694B1860C8
:10166000694BB3F90010FFF72BFA00288ED0022047
:10167000FFF74CF8FFF738FC28782178B3E05C4B93
:101680001B78032B00F2DE80DFE803F01B235602F9
:101690006148624C06F00FFC30B15F4806F027FC51
:1016A00023685B42236005E021685B484942216072
:1016B00006F015FC584806F018FCBDE8F840FFF7A6
:1016C0001FBD574805F012FD564805F00FFD0020DC
:1016D000E9E5554C5549206808F08AFC4FF07E51E9
:1016E000054608F049FF234608B9256001E04F4A46
:1016F00022601C680021204608F020FF40B92046E7
:101700004FF07E5108F038FF18B14FF07E5400E0E2
:1017100000244FF09E41204608F072FD08F05CFF67
:10172000434B1862F8BD324B1B78032B00F28A80C2
:10173000DFE803F00F3B0204002040E6364806F0E5
:10174000CBFB80F00101C9B23348BDE8F84006F098
:10175000BDBB384D2C785CB1022C73D800232B70A4
:10176000FFF7C2FBFFF7D6FBBDE8F840FFF730BC40
:101770002B4805F0BBFC2B4805F0B8FCFFF7B4FB89
:1017800014222D48214607F073F82C492A48FEF709
:1017900009FF29482146372207F06AF826482849D8
:1017A000FEF700FF02232B70F8BD174C238801338E
:1017B0009BB21AB2052AC8BF002323802078FFF706
:1017C0005BFC104BB4F900101868FFF779F900289A
:1017D0003FF4DCAE0220FEF799FFFFF785FB064BD6
:1017E0001878064B1978BDE8F840FFF71FB800BF1E
:1017F000D39CFF1F0000A041D49CFF1FA49CFF1F8F
:1018000058AE000054B1FF1F0AB0FF1F000048424D
:101810000000C8420000484388ADFF1FC49CFF1F62
:10182000F0A7FF1F74AAFF1FA89CFF1FCDCCCC3DC3
:10183000C0B0FF1F80B0FF1F0CB0FF1F41B30000FE
:1018400050B30000F8BD00BF13B52E4807F08EFA64
:101850002C48012107F00FF82A480121002207F047
:101860000FF800210A46274807F002F826492548C4
:10187000FEF79CFE234807F008F801220346009279
:10188000204800210A2207F007F8FFF717FC1F4B3A
:101890001B78032B33D8DFE803F01025020702B0D2
:1018A000BDE81040FFF736B8FFF75AF8184B186834
:1018B00002B0BDE81040FFF723BC164B1C78F4B90A
:1018C000FFF712FB214632220E4806F0D1FF1249E3
:1018D0000C48FEF76BFE4FF4FA6002B0BDE8104012
:1018E00001F056B80D4B18780D4B1978FEF79EFF96
:1018F0000C4B187802B0BDE81040FFF7BDBB02B03A
:1019000010BD00BF0CB0FF1F60B30000D39CFF1FD1
:10191000C49CFF1FF4B0FF1F09B30000D49CFF1F3D
:10192000A49CFF1F0AB0FF1F30B57E4B196885B01D
:101930007D4A1278002A00F0DC807C4A12789507F4
:1019400000F0D7807A4A18681268821A182A40F282
:10195000D080642001F01CF81420012100F076FFF3
:101960001420002100F044FF02213C220123714891
:1019700007F06CFA642001F00BF86F4B6F4918699F
:101980006F4A04F0F9F86B4807F0F0F940240021A1
:10199000802301250A468DE838006648694B6A4C69
:1019A00006F080FD634807F04BFB68480F2100F00C
:1019B000A3FA6749674803F014FA204604F08AFF47
:1019C00020464FF07C51FEF74DFDE28842F01002B8
:1019D000242192B2204604F029FF5F48FEF718FE4A
:1019E0005D48FEF747FE5D4B002119705C4B48F6E1
:1019F000A0421A805B4B186819605B490A6000F0CE
:101A0000400242F028021A60584A594911601A6887
:101A100042F040021A60574B4FF000421A604FF4F8
:101A2000FA7000F0B5FFFFF70FFF53485349046801
:101A30000B78E40443F0010201D59A4260D10A70A8
:101A40000068C00443F0050301D5934261D10A2028
:101A50000B7003F023FC4A4B0446B0B918703548AC
:101A600007F084F932222146324806F001FF454949
:101A70003048FEF79BFD2F4807F0E2FA4FF4FA607A
:101A800000F086FFFFF7E0FE01E001221A703E4BF6
:101A90003E4A1B7812780C2101FB02323C4B53F872
:101AA00022003C4BB3F90010FFF70AF83A4B1C68D0
:101AB0000021204608F042FD40B920464FF07E51FB
:101AC00008F05AFD18B14FF07E5400E000244FF0AA
:101AD0009E41204608F094FB08F07EFD2F4B1862D3
:101AE0000020FEF713FE134805B0BDE8304007F0B4
:101AF000A7BA1A68521AB2F57A7F7FF619AF28E7AB
:101B0000274C4FF4A27525604FF40075C4F8F05FC0
:101B100095E7244A4FF4A27010604FF40070C2F8A9
:101B2000F00F94E78CB1FF1F6FB2FF1F80B2FF1F51
:101B300098C3FF1F0CB0FF1F0CC3FF1F00512502ED
:101B4000801A060014B40000F8B0FF1F0082FF1FC7
:101B5000FD1B000040AEFF1FAA5801005EC3FF1F1F
:101B600060C3FF1F00900340089003404CA7FF1F75
:101B7000A904000004E100E03C80044088B1FF1F9C
:101B8000F4B0FF1F09B30000A49CFF1FD49CFF1FEB
:101B900058AE00000AB0FF1FA89CFF1FC0B0FF1F77
:101BA00018B0044014B0044037B5124C00210A4666
:101BB0000546204606F05CFE204607F0D7F8204692
:101BC000012106F058FE0C4B204653F82510FEF775
:101BD000E9FC204606F059FE012203460092204609
:101BE00000210A2206F058FE204603B0BDE830402E
:101BF00007F026BA0CB0FF1F849CFF1F10B50446E7
:101C0000164803F0EBF8012802D0022810D010BDCE
:101C1000134B1A783AB100241C70FFF715FE114BD4
:101C20001878FFF799FA2046BDE81040FFF7E8BAA8
:101C30000B4B0122413C1A70032C0ED8DFE804F054
:101C400002040608002004E0012002E0022000E077
:101C50000320BDE81040FFF7A7BF10BD40AEFF1F37
:101C600084AFFF1FD39CFF1F73B50446A1420D46EE
:101C700016461E4807DB06F008FE01380090214694
:101C800030462A4606E006F000FE0138009029465C
:101C900030462246002300F0BAFB0546134806F002
:101CA000F4FD0124032203468DE814000F480021AF
:101CB0003C2206F067FB2BB200213D2200940194E8
:101CC0000A4806F0A9FB094806F0DFFDADB202386C
:101CD00029190023451B01930094044809B23D22B1
:101CE0002BB206F099FB02B070BD00BF0CB0FF1F15
:101CF00010B5114805F056FC58B10F4805F067FCC7
:101D000004460D4805F055FC214602460020FFF729
:101D1000ABFF0A4805F046FC68B1084805F057FCDF
:101D20000446064805F045FC21460246BDE8104041
:101D30000020FFF799BF10BDF0A7FF1F74AAFF1F77
:101D4000F0B5574B1B7885B0002B40F0A680554B63
:101D50001B78032B00F2A180DFE803F0029F9F5E57
:101D6000514B1C780025012C8DF80D502CD028D318
:101D7000022C40F0928020224C484D4E372106F034
:101D800077FD2146494806F076FD04AC012247481C
:101D9000294606F075FD337904F8043D4348214691
:101DA000FEF700FC414801212A4606F069FD7379DF
:101DB0003E488DF80C302146FEF7F4FB3B480121EC
:101DC00027E0FFF795FF68E020223848384F372199
:101DD00006F04EFD04AE3548022106F04CFD3B797D
:101DE00006F8043D31483146FEF7DCFB22462F4819
:101DF000294606F045FD7B792C488DF80C3031469C
:101E0000FEF7D0FB294821462A4606F039FD27482F
:101E1000214606F030FD40E0244806F036FD00245F
:101E2000082203468DE8140020482146322206F09D
:101E3000F3FA1E482146322206F01AFD1D4806F02C
:101E40003AF8E8B11C491948FEF7ACFB194806F00E
:101E50002DF80146154800F0E5F918491348FEF73A
:101E6000A1FB12486121322206F002FD114806F062
:101E700033F810B10D48124904E00C48114901E053
:101E80000A481149FEF78EFB0A4806F011F845F2A0
:101E9000F05102461020FFF7E7FE05B0F0BD00BF8D
:101EA00084AFFF1FD39CFF1F80B0FF1F0CB0FF1F2C
:101EB000C89CFF1F88ADFF1F69B3000048B2000037
:101EC0006CB3000072B3000078B3000008B5074897
:101ED00003F052F8064B1870FEF7C6FDFFF730FF0F
:101EE0000448BDE8084007F0ABB800BF40AEFF1F94
:101EF00008B0FF1F0CB0FF1F70B5C02928BFC0215C
:101F000072B6124B1860124B00221A605A609A6027
:101F1000DA601A615A618A420BD0540902F01F0537
:101F20000126AE4053F82450354343F82450013283
:101F3000F1E700238B4206D04FF4827202FB0302CA
:101F400053700133F6E762B670BD00BF60B1FF1F8A
:101F500068B1FF1F10B572B61D4A1068134660B90C
:101F6000506858B9906858B9D06858B9106958B9CC
:101F70005069143248B962B610BD06E0043204E07C
:101F8000083202E00C3200E01032B0FA80F44FF078
:101F90000041E14020EA010010600E480178013163
:101FA000C9B2017062B6D31A9B10C4EB43144FF44C
:101FB00082736343084A03F5FB5312681C33012400
:101FC000D454D018054B1A788A4238BF197010BD06
:101FD00068B1FF1F65B1FF1F60B1FF1F5CB1FF1F3C
:101FE000417872B60378012B02D9013B037011E0EE
:101FF0004A11094BC9434FF0004001F01F0120FA7C
:1020000001F153F82200084343F82200034B1A78E9
:10201000013A1A7062B6704768B1FF1F65B1FF1FC1
:1020200030B5C3687BB1187A90420AD158685C7A9F
:10203000006950F8245025B940F824100878013080
:102040000870DB68EEE730BD437A994238BF026919
:102050004FF000033ABF52F8210042F821301846F1
:10206000704738B5437A994201D3002038BD0369DF
:1020700053F82140002243F82120002CF5D023788A
:10208000012B0ED9FFF766FF054628B10430211D4C
:102090004FF4807200F012FA2378013B2370284637
:1020A00038BD204638BD4368427A5B7A9A420FD8E1
:1020B00072B60268D3680BB9D06004E0D96809B180
:1020C0000B46FBE7D860012313724268137262B6B5
:1020D0007047FFFF074B1A7852B9074AD021117099
:1020E000A2F256324FF08041012011601870704703
:1020F0000020704764B1FF1F5EE400E0F8B5164BA6
:10210000164D1A6842F080721A60154B1A6842F038
:1021100001021A60134B2E681C688CB1237A6BB1D4
:1021200023682F681B68204698472A68E188D21BDD
:10213000120993B28A42A38088BFE3806469ECE706
:102140002968094B891B09098AB21A80074B18882C
:10215000814288BF1A80F8BDFCED00E0041000E069
:10216000001000E058B1FF1F80B1FF1F66B1FF1FD4
:10217000F8B506460C468F180025BC4207D03368D8
:1021800014F8011B1B68304698470544F5E72846BC
:10219000F8BDFFFF07B5064B1B88ADF80430036898
:1021A00001A95B680222984703B05DF804FB00BFF9
:1021B00014B8000070B505468AB022B90368C9B2E8
:1021C0001B6898472CE0012A08BF0A2221B9302257
:1021D0008DF82520212413E02124B1FBF2F002FB2D
:1021E0001011C9B209290AAE94BF303137312644E3
:1021F000C9B206F8241C014610B1013CE4B2ECE778
:1022000033B1013CE4B20AAB23442D2203F8242C61
:102210002B6801A95B6828462144C4F12202984733
:102220000AB070BD0029BABF49422D2300230A22FB
:10223000FFF7C0BFFFFFFFFF2DE9FF4780461946AC
:10224000104614461D469DF8309007F031FA10B93B
:1022500040464B4907E02046294607F029FA012865
:1022600005D148494046FEF78BF9064680E02046F6
:1022700029464FF06042444B07F08AFE10B14046B9
:102280004249F0E7204629464FF06042404B07F0B4
:1022900061FE0028F3D1204629460022002307F0E2
:1022A00059FE20B105F100473D46012600E00646F3
:1022B000384B00270022F9B249450AD21046194688
:1022C0002DA3D3E9002307F0D3FB013702460B46C9
:1022D000F1E72046294607F019FA0D46044607F0B3
:1022E00061FE07463346404639460A22FFF762FF41
:1022F0000646B9F1000F3BD0384607F043FBB9F171
:102300000F0F28BF4FF00F090B4602462946204603
:1023100007F0FAF909F101092E238DF800305FFA70
:1023200089F94FF0010A00221B4B07F0A1FB0D4673
:10233000044607F037FE04AB5344C0B200F130024C
:1023400003F8102C07F02EFB0AF1010702460B469A
:10235000FFB22046294607F0D7F94F4501D0BA46CB
:10236000E1E7D8F8003040465B6869464A4698473E
:10237000304604B0BDE8F087000000A09999B93F4D
:1023800016B800001AB80000FFFFEF411EB80000A9
:10239000FFFFEFC10000E03F00002440AFF30080EA
:1023A0000C4A0D48136811460C4A002B08BF13460F
:1023B00093FBF0F200FB12330948424344F2A710AA
:1023C00000FB03200028BCBF00F1004000F1FF30FB
:1023D0000860704784B1FF1F1DF3010024D95B071B
:1023E000ECF4FFFF10B5044630B1FFF7D9FFB0FBA6
:1023F000F4F303FB140010BD10BD884210B5044671
:1024000004DA081AFFF7EEFF204410BD10BD10B526
:10241000029C401AE41A4443521A94FBF2F0184406
:1024200010BDFFFF7FB51C4B6A4603F110056E46D9
:1024300018685968144603C40833AB422246F7D1E2
:10244000164B1A7812F0020F1D461CD0144A154B79
:10245000117811F0700118BF117080221A700022DB
:1024600003F8032C33221A710322DA7072B60C4C73
:1024700046F001062046B04762B6237813F0700399
:1024800001D0237005E0084B2A78D20701D4013B24
:10249000FAD104B070BD00BF22B8000001000240B4
:1024A0000000024007000240410D030008B5FFF79D
:1024B0003BFAFFF70BFD01F04BF8FAE7844641EADF
:1024C000000313F003036DD1403A41D351F8043BAC
:1024D00040F8043B51F8043B40F8043B51F8043BFE
:1024E00040F8043B51F8043B40F8043B51F8043BEE
:1024F00040F8043B51F8043B40F8043B51F8043BDE
:1025000040F8043B51F8043B40F8043B51F8043BCD
:1025100040F8043B51F8043B40F8043B51F8043BBD
:1025200040F8043B51F8043B40F8043B51F8043BAD
:1025300040F8043B51F8043B40F8043B51F8043B9D
:1025400040F8043B51F8043B40F8043B403ABDD20C
:10255000303211D351F8043B40F8043B51F8043BAE
:1025600040F8043B51F8043B40F8043B51F8043B6D
:1025700040F8043B103AEDD20C3205D351F8043B3D
:1025800040F8043B043AF9D2043208D0D2071CBF09
:1025900011F8013B00F8013B01D30B880380604632
:1025A000704700BF082A13D38B078DD010F00303A8
:1025B0008AD0C3F10403D21ADB071CBF11F8013B18
:1025C00000F8013B80D331F8023B20F8023B7BE767
:1025D000043AD9D3013A11F8013B00F8013BF9D292
:1025E0000B7803704B7843708B788370604670472C
:1025F00001B5EAB1102A17DB00F0070333B1C3F1CC
:102600000803D21A013B00F8011BFBDCC9B241EA06
:10261000012141EA01418C46D308013BE0E8021C5C
:10262000FBDC12F0070203D0013A00F8011BFBDCCF
:1026300001BD00BF024B1A6801321A60704700BF2B
:102640008CB1FF1F08B50B4C2368580301D500F06F
:10265000D1FA2368590501D501F072FC23681A05E7
:1026600001D501F0CBFF2368DB04ECD502F046FA7C
:10267000E9E700BF3480044008B5FFF7E3FFFFFF40
:10268000014B10221A807047002005407047FFFF61
:10269000094A08B5136868B169461844A1F5805124
:1026A000884206D308F0C8FA0C2303604FF0FF30CD
:1026B00008BD1060184608BDD89CFF1FFEE7FFFF4D
:1026C000EFF313839BB9EFF3108098B9EFF3058311
:1026D00023B10F2B04D9084A985C01E04FF48070B5
:1026E000EFF311833BB1834238BF184670474FF078
:1026F000FF30704718467047F0E300E010B5002344
:10270000B0FBF2F402FB1400092894BF30303730DC
:10271000C0B2C85420460CB10133F1E7CA18547056
:1027200022469A4206DA885CCC5C8C54C85401324A
:10273000013BF6E7084610BD7047FFFF00F140403F
:10274000A0F592237C2B14D9A0F594237C2B12D9CD
:10275000A0F596237C2B10D9A0F598237C2B06D9C5
:10276000A0F59A207D28064828BF0020704705481C
:10277000704705487047054870470548704700BFD7
:10278000B49DFF1F949DFF1FDC9CFF1F149DFF1F26
:10279000649DFF1F0C4B03EBC00010B5446820463E
:1027A000FFF7CCFF70B172B6236823F0877323F470
:1027B000803343F080732360C4F38404034B40F8F8
:1027C000243062B610BD00BF34B8000039270000C5
:1027D000044B054900221A600A60044A1060102266
:1027E0001A60704714D0034004D0034000D0034067
:1027F000212810B518D80D4A52F8303093F880428D
:102800003CB1012211B183F8802010BD83F8002172
:1028100010BD02EBC00043681A6811B142F0030218
:1028200001E022F002021A6010BD00BF34B80000BF
:10283000212806D8044B53F8303093F80002C0B278
:1028400070470020704700BF34B80000212810B541
:102850002BD8164A02EBC00301295B68144601D04D
:1028600004290FD154F83020012082F880024FF45F
:10287000A2721A601A6804290CBF42F0200222F0EA
:10288000200211E052F83000002280F8802211B9B5
:102890004FF4807208E0022902D140F2031203E0F3
:1028A000032908BF4FF481721A6010BD34B80000CC
:1028B000212870B50D463CD8042A3AD8DFE802F04A
:1028C0000709050B03000B2306E00A2304E0082395
:1028D00002E00C2300E009231E04164B03EBC003A7
:1028E0005C68216811F4E06101D1FFF7AFFF124B82
:1028F000124AC3F89C21124AC3F8A021114AC3F816
:10290000A421114AC3F8A8212046104AC3F8AC21DB
:10291000FFF714FF68B172B6226822F470222260B9
:10292000C4F3840342F08072164340F823502660BB
:1029300062B670BD34B800000092FF1F119CFF1FEB
:10294000E59BFF1FB99BFF1F8D9BFF1F619BFF1F17
:1029500072B60C4B0C491A680C4B1B68096862B6BE
:10296000490102D5322A88BF0133C2F58C32482191
:1029700002F23F12B2FBF1F24FF47A7000FB032037
:10298000704700BF18E000E004ED00E08CB1FF1FCD
:1029900038B50446FFF7DCFF054624B938BD013CD5
:1029A0000AD005F57A75FFF7D3FF401BB0F57A7FA3
:1029B000F5D200F0CDFDF6E738BDFFFF214B4FF417
:1029C000000210B51A604FF080721A604FF000726A
:1029D0001A604FF080621A604FF000621A601A4B62
:1029E0001A4A1B4C002048F6FF71186059602823D2
:1029F0001360936013619361136293621363936333
:102A00000922226004F58054043420606160A360D0
:102A1000236144F8042C04F5FE2420600D48016075
:102A20000D490B608B600D4B1A6000F04FFF322098
:102A3000FFF7AEFF00F0DCFB4FF4AF70BDE81040D5
:102A4000FFF7A6BF08E100E0048003400C800340CC
:102A50000080034008800B400C800B4000800B403E
:102A6000F0B50C4B0C4C1A7842F0020504EBC5068D
:102A700082F00102706009481A700678002E0CBFBF
:102A80008827C82786F0010647EA0141067044F806
:102A90003510F0BDF8B1FF1F0080FF1F70B2FF1F9F
:102AA000431E032B10B510D872B6094A52F8230002
:102AB00048B1416842F82310064A018832F81340B1
:102AC000611A22F8131062B610BD002010BD00BFBD
:102AD000E8B1FF1F88C3FF1F013803280AD872B668
:102AE000054B53F82030002013B101305B68FBE741
:102AF00062B67047002070473CB2FF1F10B572B637
:102B00000123174A1A4412F8012C12071CD5990008
:102B1000144A52F831402CB902EB43130830586084
:102B2000114B09E041F0010152F8314064B902EB68
:102B3000C103083058600D4B42F831300C4B1A7805
:102B4000013A1A7062B610BD0133052BD9D162B6B5
:102B5000074B00221A70BDE8104000F0A7BB00BF71
:102B600068BA00000080FF1F88004000C8004000D5
:102B700066B2FF1F431E032B30B532D8194A4001FD
:102B800040F01000104472B6174CE25C032A09D8DA
:102B9000DFE802F0160218050830022213E00830C0
:102BA000042210E01148124A50F8234014B940F8AA
:102BB000231002E052F82300416042F823100FE096
:102BC000032200E00522E25410F0080F01F108038F
:102BD0000A8843600CBF8823C82343EA024303608A
:102BE00062B630BD0080FF1FA4B1FF1F3CB2FF1FC3
:102BF0004CB2FF1F2DE9F84FAB4F3C78E4B214F014
:102C0000040F3D4619D0A94B1B78A3B1A84A1178EF
:102C100001F0FF0321B1013BDBB2137003B900BE29
:102C2000A44A117801F0FF0329B1013BDBB2137014
:102C30000BB900F069FC04233B7004F0080303F0B7
:102C4000FF02002B00F067829B4B9C4C1A78D2B29B
:102C500015094FEA920840F0E48104EBC803596873
:102C600054F83830C3F38303013B0C2B00F2D681B8
:102C7000DFE813F095019501D401D401D401D4010A
:102C8000D401D401B001D401D401D4010D008C4D84
:102C90000A684B688B486B6001218B4B44F83830D5
:102CA0002A60DFF85082017092B240F28160002306
:102CB0008242C8F800302361A36117D8B2F5D06F03
:102CC00080F01E81B2F5817F00F0CF8006D8802A87
:102CD00000F0BA80822A00F0BB8031E140F202337A
:102CE0009A4200F0D180B2F5A06F1CE042F22100C0
:102CF000824200F051810ED8B2F5086F00F09E803C
:102D0000B2F5106F40F01C81684B6C4EAA781A70B7
:102D100006F180090AE042F221218A4200F008818E
:102D200042F221339A4200F00F8109E1336A1B0617
:102D300003D5706A083800F0B9FA08364E45F5D167
:102D40000026B146DFF8B0A156F80A0028B1D0F845
:102D500004B000F0ABFA5846F8E74AF806005B4BBF
:102D6000DFF898A1F05056F80A0028B1D0F804B066
:102D700000F09CFA5846F8E7554B4AF80600F05028
:102D8000544B23F81900544B19F80320023A032A34
:102D900008D8DFE802F002040204002200E0012269
:102DA00003F8092009F10109B9F1040F06F104063D
:102DB000C8D14A4B00221A7001269A46484A494B0C
:102DC0003244334412F8012C9B0012F0080F1A70A1
:102DD0004FEA860925D000F04BFA38B104EB4613D0
:102DE00008305860404B44F8393006E09AF800301B
:102DF00044F8390001338AF8003000F039FA49F01C
:102E0000010338B104EBC302083050602E4A44F885
:102E1000332006E044F833009AF8003001338AF892
:102E2000003049F00202013649F003090023052E63
:102E300044F8323044F83930C0D186E01B4B2B4C7B
:102E40001B7823700B4683E0284C237063707EE070
:102E5000AA88042A74D8254C920023706370244BEE
:102E60009B5C9E0773D5217071E0AA8802F07F02F7
:102E7000042A65DC6B88002B62D191001C4A0A444D
:102E8000117821F0020159E0AA8802F07F02042A99
:102E900056DC6B88002B53D19100154A0A441178F7
:102EA00041F002014AE000BF802007406FB2FF1FDF
:102EB000F9B1FF1F71B2FF1F902007400080FF1F74
:102EC0005CB2FF1F70B2FF1FC800400094B1FF1F2B
:102ED0004CB2FF1F88C3FF1FA4B1FF1F66B2FF1FC4
:102EE00068BA000030C801108800400067B2FF1FB8
:102EF000C020074090B1FF1FE8B1FF1F3CB2FF1F89
:102F00006A88A9889F4B53F8084CA3F10C00BCB108
:102F100033F80C6C964209D133F80A6C8E4205D115
:102F2000120A032A0CBF2378038911E00C33EAE765
:102F3000954A1168954A1160A978954A117004E084
:102F4000944B0F221A7027E000231C4600E0022356
:102F5000EE88B34238BF1E46402E34BF354640256A
:102F600020462946FFF77CFD761B2C4403D1402DDB
:102F700012D1354603E0402E34BF35464025204669
:102F80002946FFF76DFD761B2C4401D1402D03D15E
:102F9000814AC8F8004016800122804B3DE0804BFA
:102FA0001A8842F221039A4210D100237D4AC85C5C
:102FB00098540133072BF9D11368862B02D17A4B31
:102FC0000F221A7000200146FFF74AFD774B44F8A4
:102FD000383023E0764E3568B5B1DFF8BC81B8F8FB
:102FE0000090B9F1400F34BF4C464024284621469A
:102FF000FFF736FDC4EB09039BB2A8F800300BB90C
:10300000402C00D12B193360654B1A88B2F5A06FA4
:1030100004D100225A709A78664B1A7001225F4BD5
:103020006CE004EBC806013D736802F00802A3F1EE
:103030000800EDB202F0FF01002A36D000F036F9A8
:103040005D485E4B50F82520EAB1516840F82510E4
:1030500002F108017160595D03290BD8DFE801F026
:1030600002040608032104E0022102E0052100E039
:103070000421595516F0080F12880CBF8823C82365
:1030800043EA024342E05A5D032A07D8DFE802F030
:1030900040400204002206E0012204E016F0080F7E
:1030A0000CBF022203225A5532E054F83820120C89
:1030B00023F8082C22B3DFF834E123F8061C43F888
:1030C000041C5EF825303E4913B94EF8250002E095
:1030D00051F8253058603B4B41F8250033F8151066
:1030E0000A4423F8152000F0C3F810B108307060CE
:1030F00006E0354B44F838001A7801321A7007E0C0
:103100002A4B324A16F0080F08BF134644F83830ED
:1031100008233B7070E5E0071FD520492B482C4C55
:1031200002230B702B4B1A702B4B186098602B48A6
:10313000D8601A619A615C60164B0D20187028489F
:10314000FF2303702B700274264A1370264B9F22B4
:103150001A7001230B70BDE8F88F210604D50D4BC2
:103160000D221A7080232B70A20705D51C4B1A78EC
:10317000D2B21A7002232B70E30644BF10232B70C7
:10318000BDE8F88F78BA00008CB1FF1F98C3FF1F0D
:1031900080B2FF1FC020074064B2FF1F9420074089
:1031A0005CB2FF1F90C3FF1FF9B1FF1FC8004000B2
:1031B00090B1FF1F982007403CB2FF1FA4B1FF1F32
:1031C00094B1FF1F88C3FF1F66B2FF1F8800400035
:1031D000A8B1FF1FF8B1FF1F0080FF1FFCB1FF1F48
:1031E000882007408C20074084200740E8B1FF1F5B
:1031F00008B501F0EBFC00221A4B0021D1509818C1
:103200000832882A4160F7D1174A106840F48020BC
:10321000106002F528326832C3F307201070C3F340
:1032200007401B0E10751376FF2302F81C3C02F8B2
:10323000143C02F88C3C012302F8083C82F864102C
:1032400002F8183C094B70226FF450711A700B444D
:103250004FF400721A6003F1C04303F5C823102233
:103260001A7008BD0080FF1F3480044049E400E06C
:1032700072B60C4A1168B1FA81F30B2B02D962B60F
:10328000002070474FF00040D84021EA0001116053
:1032900062B6054948225343C8180022CA5042600A
:1032A000704700BFBC9DFF1F0098FF1F0C4B4822BA
:1032B000C31AB3FBF2F30B2B11D80A4A127822B1CE
:1032C000094A12780AB1FFF719BC72B6074A4FF0E3
:1032D000004121FA03F311681943116062B6704787
:1032E0000098FF1F66B2FF1F6FB2FF1FBC9DFF1F3C
:1032F00010B5104C23686BB120684288531C0244FF
:10330000147A0288934212D3FFF7D0FF094B0022B0
:103310001A600DE0084B1B7813B94FF0FF3010BD59
:103320000320FFF7BDFB20600028E5D1F5E74380CF
:10333000204610BD7CB2FF1F6FB2FF1F10B50B4CB3
:10334000236813B123686BB902E0094B1B7813B9EA
:103350004FF0FF3010BD0320FFF7A2FB20600028D4
:10336000F0D1F5E75A881344187A10BD7CB2FF1FDC
:103370006FB2FF1F044B9888044B1B681BB11A885F
:103380005B88D31A1844704788C3FF1F7CB2FF1FA5
:1033900010B5094B1B786BB1084C206818B1FFF7CA
:1033A00085FF002323600320FFF77AFB10B1FFF7AE
:1033B0007DFFF8E710BD00BF6FB2FF1F7CB2FF1F9B
:1033C0002DE9F0472E4E01230746894633700C46FF
:1033D000002C50D02B4D2B68AA462BBB48F6014839
:1033E000294B1B7803F0FF020BB9327015E0042063
:1033F000FFF772FB072808D801233370FFF738FF67
:10340000CAF8000080B91E4B1870B8F101081F4BB4
:1034100001D01A782AB101221A704FF0FF30BDE8AE
:10342000F08700F095F8DBE7184B00221A702B6844
:103430005888C0F140018C4238BF214600F1080C89
:1034400008449C445880641A8A4204D0B85C0CF842
:1034500002000132F8E717445A883F2A07D9402270
:103460001A8019460420FFF785FB00232B60084BC8
:1034700005221A70ACE734704846BDE8F08700BFFB
:1034800072B2FF1F74B2FF1F6FB2FF1F78B2FF1F2F
:1034900071B2FF1F07B502AB012103F8010D1846F9
:1034A000FFF78EFF03B05DF804FBFFFF2DE9F0414D
:1034B000114B1B78F3B1114E114B3468114D01279C
:1034C0001F7098464CB1002763882F70042023801A
:1034D0002146FFF74FFB376009E0FFF7C9FE0146C1
:1034E00020B104202C70FFF745FB00E02F70002373
:1034F00088F80030BDE8F0816FB2FF1F74B2FF1F83
:1035000072B2FF1F71B2FF1F38B50E4B1B7803F06C
:10351000FF05ABB90C4C216831B14B880B800420FE
:10352000FFF728FB256038BDFFF7A2FE014620B15A
:103530000420BDE83840FFF71DBB044B01221A7080
:1035400038BD00BF72B2FF1F74B2FF1F71B2FF1F00
:1035500010B50E4C2378BBB901232370FFF70AFF87
:1035600008B101F07CFB00F075FC08B100F08AF8AE
:1035700000F0CEFF08B100F00FF901F05BFA08B1DE
:1035800000F094F90023237010BD00BF81B2FF1F2B
:1035900008B50368C9B21B68984708BD08B5036839
:1035A000C9B21B68984708BD08B50368C9B21B6853
:1035B000984708BD08B50368C9B21B68984708BD9D
:1035C000034800EB5100B0FBF1F000F0DBB900BFA5
:1035D0000044950810B5064800EB51001446B0FBB6
:1035E000F1F000F0CFF92046BDE8104000F02EBA0F
:1035F0000044950800F054BA084600F0A7BA0846FF
:1036000000F0F6BA0846114600F0BCBA08B5084604
:1036100000F014FB003018BF012008BD08B50846B3
:1036200000F02EFB003018BF012008BD00F012BCD6
:1036300000F04ABC00F01EBC00F0F0BB00F05CBC27
:1036400000F0F6BB08B5084600F040FB012008BDBD
:1036500008B5084600F03AFB012008BD10B5084641
:103660001446114600F07CFB204610BD38B50846D4
:103670000D4607F0D5FB04462146284600F070FBB6
:10368000204638BD7047FFFF044B00221A714FF4EB
:103690007A711A73024A99601A60704784B2FF1FE8
:1036A00050B9000008B50368C9B21B68984708BD47
:1036B00008B50368C9B21B68984708BD08B5036818
:1036C000C9B21B68984708BD08B50368C9B21B6832
:1036D000984708BD034800EB5100B0FBF1F000F043
:1036E000B3BC00BF0044950810B5064800EB51007C
:1036F0001446B0FBF1F000F0A7FC2046BDE81040F6
:1037000000F006BD0044950800F02CBD084600F00E
:1037100081BD084600F0D0BD0846114600F096BDB8
:1037200008B5084600F0F0FD003018BF012008BDC4
:1037300008B5084600F00AFE003018BF012008BD99
:1037400000F0E6BE00F01EBF00F0F2BE00F0C4BE06
:1037500000F030BF00F0CABE08B5084600F014FE05
:10376000012008BD08B5084600F00EFE012008BD86
:1037700010B508461446114600F050FE204610BD14
:1037800038B508460D4607F04BFB0446214628464F
:1037900000F044FE204638BD7047FFFF044B002276
:1037A0001A714FF47A711A73024A99601A6070475D
:1037B00094B2FF1FB0B9000008B50368C9B21B6816
:1037C000984708BD08B50368C9B21B68984708BD8B
:1037D00008B50368C9B21B68984708BD08B50368F7
:1037E000C9B21B68984708BD034800EB5100B0FB05
:1037F000F1F000F087BF00BF00A24A0410B50648F0
:1038000000EB51001446B0FBF1F000F07BFF2046C6
:10381000BDE8104000F0B8BF00A24A0400F0DEBFCF
:10382000084601F00FB8084601F050B808461146A6
:1038300001F024B808B5084601F04AF8003018BF76
:10384000012008BD08B5084601F064F8003018BF33
:10385000012008BD01F0EEB801F026B901F0FAB878
:1038600001F0CCB801F038B901F0D2B808B508467B
:1038700001F06EF8012008BD08B5084601F068F8AF
:10388000012008BD10B508461446114601F0AAF8FB
:10389000204610BD38B508460D4607F0C1FA04466B
:1038A0002146284601F09EF8204638BD7047FFFFAC
:1038B000044B00221A714FF47A711A73024A99600C
:1038C0001A607047A4B2FF1F10BA000010B5204B59
:1038D0002048214960221A70E1225A701F4B204A69
:1038E0001C78204B082C01D1012402E00A2C03D1C2
:1038F00019240460132005E00C2C0CBF15243D2472
:1039000004601220086014601860174B17491B7878
:10391000174A03B101230B601360164B164A19783E
:10392000164B012901D880210BE0042901D88421FC
:1039300007E0082901D8852103E0102994BF8621DA
:103940008721116019600E4B01221A7010BD00BF53
:103950000040074008B003400CB00340C09DFF1F6B
:1039600008B00B400CB00B40B5B2FF1F20B00340B5
:1039700020B00B40C19DFF1F24B0034024B00B407A
:10398000B4B2FF1F234B1A6842F480621A60224AC5
:1039900000231370214A1370214A1370214A1370B7
:1039A000214A1370214B1B782BB1152B07D140F204
:1039B00013321F4B02E01F4B40F213321A601E4BB2
:1039C0001B78012B05D0052B07D14FF451721B4BEF
:1039D00002E01B4B4FF451721A601A4BC0F3443291
:1039E0001A70C0F347125A700221042200F01F001F
:1039F00098729A70D9745A7588221A743C22DA70B7
:103A0000114B40226FF44A711A700B444FF400526C
:103A10001A607047348004403FB3FF1FBDB2FF1FE0
:103A200048B3FF1F40B3FF1FBCB2FF1FFEB2FF1F12
:103A300018C0044040A00440C29DFF1F1CC00440A9
:103A400044A0044000A006402DE400E0134A93780F
:103A500000F0030103F0EC030B43410748BF43F0C0
:103A60001003937000F00F03042B0C4903D18B79E2
:103A700043F040038B715379C20603F0EF03074A0A
:103A800048BF43F0100353719379810603F0EF03AD
:103A900048BF43F010039371704700BF00A0064079
:103AA00008B51D4B1B685B0500D408BD1B4B1B787C
:103AB00003F0FF0213B1FFF74BFDF7E7184B4FF48C
:103AC00000511960174BDA70174B1B782BB1152B6F
:103AD00007D140F20312154B02E0154B40F20312DE
:103AE0001A60144B1B7803F07F03012B05D0052BC4
:103AF00007D140F20312104B02E0104B40F20312C8
:103B00001A600F4A002313700E4A13700E4B1B6885
:103B10000BB101221A7008BD34800440BCB2FF1FF3
:103B200084E100E000A00640FEB2FF1F18C0044080
:103B300040A00440C29DFF1F1CC0044044A004409C
:103B40003FB3FF1FBDB2FF1FB8B2FF1F38B5044619
:103B5000094B1B7803F0FF05002BF9D1204601210A
:103B6000FEF774FE20462946FEF742FE034B53F84B
:103B70003420034B1A6038BDBCB2FF1F34B80000BC
:103B800044B3FF1F10B509B140F08000144A137808
:103B90009842144622D0134A126852051DD503F0EC
:103BA0007F03012B04D0052B05D100220E4B01E031
:103BB0000E4B00221A60002900F07F020CBF442344
:103BC0006023012A05D0052A07D143F44073064A31
:103BD00002E0064A43F440731360207010BD00BF3A
:103BE000C29DFF1F348004401CC0044044A0044018
:103BF0000E4A1378984218D00D490968490513D523
:103C00002BB1152B05D10B4B0021196001E00A499E
:103C10000B6028B1152807D140F21331054B02E0A3
:103C2000054B40F21331196010707047FEB2FF1F50
:103C30003480044018C0044040A004400D4A38B508
:103C4000146814F480624FF0000410D021280A4D4B
:103C50000AD80A4A012152F830302B60FEF7F6FDEF
:103C60002B681C70012038BD2C60204638BD1046E2
:103C700038BD00BF34800440B8B2FF1F34B8000024
:103C80000E4B1B6813F4806316D012280C4B03D123
:103C900040F202310B4A04E0142809D10A4A40F2EA
:103CA000023111605A7B42F001025A7301207047C1
:103CB0005A7B02F0FE025A730020704734800440A1
:103CC00000A006400CA0044014C00440F8B51D4BF1
:103CD0001B685A05064633D51B4B1B680BB10122E6
:103CE0001A701A4B1C780134402C1F4628BF002440
:103CF000174D2B78A34218D1FEF7E2FC40280FDCC9
:103D0000144A13791B06F3D52B7813490133402B42
:103D100028BF0023C95CDBB2C9B2D1712B70E7E7C1
:103D2000FF28E5DDFFF714FCE2E70B4BF6B21E556A
:103D30000A4B01221A70074BE4B2BC223C70DA70C5
:103D4000F8BD00BF3480044044B3FF1F48B3FF1FD9
:103D500040B3FF1F00A00640BEB2FF1FBCB2FF1F52
:103D6000274B1B685A052DE9F04707468A4644D57C
:103D7000244B1B680BB101221A703D4607EB0A0366
:103D80009D4237D2DFF890801F4E98F8004096F899
:103D900000900134402C28BF00245FFA89F9A14526
:103DA0001DD11A4BBC22DA70FEF78AFC40280FDCCA
:103DB000164A13791B060FD5337815490133402B6A
:103DC00028BF0023C95CDBB2C9B2D171337003E0F4
:103DD000FF2801DDFFF7BCFB33784B45E4D00C4BEB
:103DE00015F8012B1A550B4B0122E4B21A7088F812
:103DF0000040C3E7054BBC22DA70BDE8F08700BF86
:103E00003480044044B3FF1F40B3FF1F00A00640AE
:103E1000BEB2FF1FBCB2FF1F48B3FF1F08B5034B64
:103E20001B7813B1FFF794FBF9E708BDBCB2FF1F85
:103E3000064A074B1B781078DBB2C0B283422CBF16
:103E40003F3000F1FF30C01A704700BF40B3FF1F82
:103E500048B3FF1F054B1878054B1B78C0B2DBB287
:103E6000984238BF4030C01A704700BF3FB3FF1FB1
:103E7000BDB2FF1F10B5104B10491A780B78D2B2A3
:103E8000DBB29A4214D00133402B28BF00230C48E8
:103E9000DCB2C05C0C700B490968C0B251B19A42E7
:103EA00038BF4032D31A1A2B04DC00230B7010BD2C
:103EB0004FF0FF3010BD00BF3FB3FF1FBDB2FF1F6B
:103EC000FFB2FF1FB8B2FF1F084B1A78084B1B78D0
:103ED000DBB29A4207D00133402B28BF0023054AAA
:103EE000D05CC0B270474FF0FF3070473FB3FF1F48
:103EF000BDB2FF1FFFB2FF1F0C4B1B685B0514D543
:103F00000B4BDA7802F0CB02DA7040225A74DA787E
:103F100042F03402DA70074B1A78074BD2B21A70AB
:103F2000064B1B680BB100221A70704734800440A6
:103F300000A00640BDB2FF1F3FB3FF1FB8B2FF1F76
:103F400030B5374B1A7912F0300F31D072B69A7DF6
:103F500002F0FF0022B9DA7940225A7462B627E0F3
:103F600062B6304A304913780978DBB2C9B21446D8
:103F70002B4AD5795A1C402A28BF00228A42EDB22A
:103F800002D02A4B9D541346421E12F0FF00EFD17F
:103F9000DAB22270264A126852B18B4236BFC1F1A2
:103FA0004001C1EB03035B18272BC4BF012313702F
:103FB0001B4BD978C9B20C0620D51B7918061DD524
:103FC0001C4B1D4A1D781378EDB2DBB21046AB4294
:103FD0000CD0134A0133402B1479184C28BF00230E
:103FE000E45CE4B2D471127D072AF0D9DBB203702D
:103FF0000B4B1A79120644BF7C22DA704B060ED5A1
:10400000074B1A7912F0400F194608D00C4B0022CA
:104010001A700C4B1B6803B11A703C23CB7030BD77
:1040200000A006403FB3FF1FBDB2FF1FFFB2FF1F3E
:10403000B8B2FF1F48B3FF1F40B3FF1FBEB2FF1F40
:10404000BCB2FF1F44B3FF1F234B1A6842F4006247
:104050001A60224A00231370214A1370214A1370F8
:10406000214A1370214A1370214B1B78092B05D06C
:104070001A2B07D140F213321E4B02E01E4B40F2C6
:1040800013321A601D4B1B780A2B05D01F2B07D14A
:104090004FF451721A4B02E01A4B4FF451721A60EE
:1040A000194BC0F344321A70C0F347125A7000F033
:1040B0001F000422022198729A70D9745A758822BE
:1040C0001A743C22DA70114B40221A70A3F22B337F
:1040D0004FF400421A60704734800440BAB3FF1FA7
:1040E00051B3FF1FC0B3FF1FBBB3FF1F50B3FF1F70
:1040F000C39DFF1F04D004400CB00440C49DFF1FAB
:1041000000D0044010B0044000B006402FE400E0AE
:10411000134A937800F0030103F0EC030B434107CB
:1041200048BF43F01003937000F00F03042B0C49B9
:1041300003D18B7943F040038B715379C20603F0AE
:10414000EF03074A48BF43F0100353719379810688
:1041500003F0EF0348BF43F010039371704700BFB3
:1041600000B0064008B51E4B1B681B0500D408BDF7
:104170001C4B1B7803F0FF0213B1FFF7E9F9F7E7D7
:10418000194B4FF400411960184BDA70184B1B782B
:10419000092B05D01A2B07D140F20312154B02E070
:1041A000154B40F203121A60144B1B7803F07F0387
:1041B0000A2B05D01F2B07D140F20312104B02E04F
:1041C000104B40F203121A600F4A002313700F4A7B
:1041D00013700F4B1B680BB101221A7008BD00BF92
:1041E0003480044050B3FF1F84E100E000B006407B
:1041F000C39DFF1F04D004400CB00440C49DFF1FAA
:1042000000D0044010B00440BAB3FF1F51B3FF1FE9
:104210004CB3FF1F38B50446094B1B7803F0FF056C
:10422000002BF9D120460121FEF710FB204629463C
:10423000FEF7DEFA034B53F83420034B1A6038BD07
:1042400050B3FF1F34B80000BCB3FF1F10B509B155
:1042500040F08000144A13789842144622D0134A42
:10426000126812051DD503F07F030A2B04D01F2B03
:1042700005D100220E4B01E00E4B00221A600029EE
:1042800000F07F020CBF442360230A2A05D01F2AB6
:1042900007D143F44073064A02E0064A43F44073F0
:1042A0001360207010BD00BFC49DFF1F3480044008
:1042B00000D0044010B004400F4A137898421AD03E
:1042C0000E490968090515D5092B04D01A2B05D10B
:1042D00000210B4B01E00B4B00211960092805D090
:1042E0001A2807D140F21331054B02E0054B40F28A
:1042F0001331196010707047C39DFF1F3480044054
:1043000004D004400CB004400D4A38B5146814F4CD
:1043100000624FF0000410D021280A4D0AD80A4A42
:10432000012152F830302B60FEF790FA2B681C7098
:10433000012038BD2C60204638BD104638BD00BF76
:10434000348004404CB3FF1F34B800000B4B1B6893
:1043500013F4006310D01728094B09D1094A40F221
:10436000023111605A7B42F001025A7301207047FA
:104370005A7B02F0FE025A730020704734800440DA
:1043800000B0064008B00440F8B51D4B1B681A0584
:10439000064633D51B4B1B680BB101221A701A4B12
:1043A0001C780134282C1F4628BF0024174D2B7879
:1043B000A34218D1FEF784F940280FDC144A137980
:1043C0001B06F3D52B7813490133282B28BF002374
:1043D000C95CDBB2C9B2D1712B70E7E7FF28E5DD1C
:1043E000FFF7B6F8E2E70B4BF6B21E550A4B012277
:1043F0001A70074BE4B2BC223C70DA70F8BD00BF03
:1044000034800440BCB3FF1FC0B3FF1FBBB3FF1F0A
:1044100000B0064052B3FF1F50B3FF1F274B1B686D
:104420001A052DE9F04707468A4644D5244B1B68F8
:104430000BB101221A703D4607EB0A039D4237D2A9
:10444000DFF890801F4E98F8004096F800900134F5
:10445000282C28BF00245FFA89F9A1451DD11A4BE9
:10446000BC22DA70FEF72CF940280FDC164A1379CB
:104470001B060FD5337815490133282B28BF00239D
:10448000C95CDBB2C9B2D171337003E0FF2801DD32
:10449000FFF75EF833784B45E4D00C4B15F8012B51
:1044A0001A550B4B0122E4B21A7088F80040C3E79A
:1044B000054BBC22DA70BDE8F08700BF34800440B1
:1044C000BCB3FF1FBBB3FF1F00B0064052B3FF1FBA
:1044D00050B3FF1FC0B3FF1F08B5034B1B7813B1C8
:1044E000FFF736F8F9E708BD50B3FF1F064A074B40
:1044F0001B781078DBB2C0B283422CBF273000F1AA
:10450000FF30C01A704700BFBBB3FF1FC0B3FF1F0F
:10451000054B1878054B1B78C0B2DBB2984238BF08
:104520004030C01A704700BFBAB3FF1F51B3FF1F1E
:1045300010B5104B10491A780B78D2B2DBB29A4200
:1045400014D00133402B28BF00230C48DCB2C05CE0
:104550000C700B490968C0B251B19A4238BF403261
:10456000D31A1A2B04DC00230B7010BD4FF0FF3060
:1045700010BD00BFBAB3FF1F51B3FF1F7AB3FF1FB7
:104580004CB3FF1F084B1A78084B1B78DBB29A42DA
:1045900007D00133402B28BF0023054AD05CC0B2AE
:1045A00070474FF0FF307047BAB3FF1F51B3FF1F82
:1045B0007AB3FF1F0C4B1B681B0514D50B4BDA7825
:1045C00002F0CB02DA7040225A74DA7842F03402F8
:1045D000DA70074B1A78074BD2B21A70064B1B6879
:1045E0000BB100221A7070473480044000B00640BE
:1045F00051B3FF1FBAB3FF1F4CB3FF1F30B5374B8A
:104600001A7912F0300F31D072B69A7D02F0FF00A5
:1046100022B9DA7940225A7462B627E062B6304A8B
:10462000304913780978DBB2C9B214462B4AD579E0
:104630005A1C402A28BF00228A42EDB202D02A4BDF
:104640009D541346421E12F0FF00EFD1DAB22270E1
:10465000264A126852B18B4236BFC1F14001C1EB0C
:1046600003035B18272BC4BF012313701B4BD9789E
:10467000C9B20C0620D51B7918061DD51C4B1D4A46
:104680001D781378EDB2DBB21046AB420CD0134A62
:104690000133282B1479184C28BF0023E45CE4B2C2
:1046A000D471127D072AF0D9DBB203700B4B1A7953
:1046B000120644BF7C22DA704B060ED5074B1A79DE
:1046C00012F0400F194608D00C4B00221A700C4B08
:1046D0001B6803B11A703C23CB7030BD00B006409C
:1046E000BAB3FF1F51B3FF1F7AB3FF1F4CB3FF1FB5
:1046F000C0B3FF1FBBB3FF1F52B3FF1F50B3FF1F59
:10470000BCB3FF1F174B1A6842F480521A60164A56
:1047100000231370154A1370154A1370154A13704D
:10472000154A1370154A40F2133111604FF451715C
:104730005160134AC0F344311170C0F3471100F0C7
:104740001F0051709072937013742C23D3700D4B13
:1047500040226FF44B711A700B444FF400321A6010
:10476000704700BF3480044032B4FF1FC9B3FF1F3D
:1047700038B4FF1F33B4FF1FC8B3FF1F08C0044085
:1047800000C0064031E400E0134A937800F00301D2
:1047900003F0EC030B43410748BF43F01003937051
:1047A00000F00F03042B0C4903D18B7943F0400335
:1047B0008B715379C20603F0EF03074A48BF43F0F9
:1047C000100353719379810603F0EF0348BF43F060
:1047D00010039371704700BF00C0064008B5114B2D
:1047E0001B68DB0400D408BD0F4B1A7802F0FF03EE
:1047F00012B1FEF7ADFEF7E70C4A4FF4003111603D
:104800000B4A0C49D37040F203120A604A600A4A0C
:1048100013700A4A13700A4B1B680BB101221A70FD
:1048200008BD00BF34800440C8B3FF1F84E100E02E
:1048300000C0064008C0044032B4FF1FC9B3FF1FC8
:10484000C4B3FF1F38B50446094B1B7803F0FF05BE
:10485000002BF9D120460121FDF7F8FF204629461B
:10486000FDF7C6FF034B53F83420034B1A6038BDE5
:10487000C8B3FF1F34B8000034B4FF1F10B509B12E
:1048800040F080000E4A1378984217D00D4C2468EF
:10489000E40412D503F07F03082B02D10A4B002455
:1048A0001C60002900F07F030CBF44216021082B0D
:1048B00003D1054B41F440711960107010BD00BF69
:1048C000C59DFF1F348004400CC004407047FFFFAB
:1048D0000D4A38B5146814F480524FF0000410D01B
:1048E00021280A4D0AD80A4A012152F830302B609B
:1048F000FDF7ACFF2B681C70012038BD2C602046F2
:1049000038BD104638BD00BF34800440C4B3FF1F1B
:1049100034B800000B4B1B6813F4805310D00E28E2
:10492000094B09D1094A40F2023111605A7B42F029
:1049300001025A73012070475A7B02F0FE025A733B
:10494000002070473480044000C0064004C004408A
:10495000F8B51D4B1B68DA04064633D51B4B1B68A4
:104960000BB101221A701A4B1C780134282C1F46F7
:1049700028BF0024174D2B78A34218D1FDF7A0FEC5
:1049800040280FDC144A13791B06F3D52B78134902
:104990000133282B28BF0023C95CDBB2C9B2D17117
:1049A0002B70E7E7FF28E5DDFEF7D2FDE2E70B4BD2
:1049B000F6B21E550A4B01221A70074BE4B2AC2224
:1049C0003C70DA70F8BD00BF3480044034B4FF1F7F
:1049D00038B4FF1F33B4FF1F00C00640CAB3FF1F27
:1049E000C8B3FF1F38B504464518AC4204D014F8CC
:1049F000010BFFF7ADFFF8E738BDFFFF08B5034B2C
:104A00001B7813B1FEF7A4FDF9E708BDC8B3FF1F7B
:104A1000064A074B1B781078DBB2C0B283422CBF2A
:104A2000273000F1FF30C01A704700BF33B4FF1FBA
:104A300038B4FF1F054B1878054B1B78C0B2DBB2AA
:104A4000984238BF4030C01A704700BF32B4FF1FD1
:104A5000C9B3FF1F10B5104B10491A780B78D2B2AA
:104A6000DBB29A4214D00133402B28BF00230C48FC
:104A7000DCB2C05C0C700B490968C0B251B19A42FB
:104A800038BF4032D31A1A2B04DC00230B7010BD40
:104A90004FF0FF3010BD00BF32B4FF1FC9B3FF1F7E
:104AA000F2B3FF1FC4B3FF1F084B1A78084B1B78E3
:104AB000DBB29A4207D00133402B28BF0023054ABE
:104AC000D05CC0B270474FF0FF30704732B4FF1F68
:104AD000C9B3FF1FF2B3FF1F054B1A78054BD2B2C3
:104AE0001A70054B1B680BB100221A70704700BF8B
:104AF000C9B3FF1F32B4FF1FC4B3FF1F10B5294B4A
:104B00001A79920620D5284AD87913782749013393
:104B1000402B097828BF00238B42C0B203D0244920
:104B2000C854D9B21170234A116869B1224A127867
:104B3000D2B2934236BFC2F14002C2EB03039B18CC
:104B4000272BC4BF01230B70164AD178C9B20C06BB
:104B500016D51379180613D5184B17481C78037807
:104B6000DBB29C4202D16C23D37009E00133282BC5
:104B700028BF0023124CE45CDBB2E4B2D4710370B2
:104B80004B060ED5074B1A7912F0400F194608D084
:104B90000C4B00221A700C4B1B6803B11A702C23AB
:104BA000CB7010BD00C0064032B4FF1FC9B3FF1F59
:104BB000F2B3FF1FC4B3FF1F33B4FF1F38B4FF1F8E
:104BC000CAB3FF1FC8B3FF1F34B4FF1F1FB572B6AF
:104BD000154B70221A70154A412111700F2102F8ED
:104BE000011C80221A701A781206FCD5104B186826
:104BF00062B6104B984298BF0A2301AC98BF584345
:104C000021460A22FDF77AFD0023E15C0A4A29B118
:104C100002EB430001330A2B4180F6D101335B00E4
:104C2000137004B010BD00BF000002400700024036
:104C3000080002407F9698004E9EFF1FFEF79ABB29
:104C4000FEF756BBFEF77ABBFEF730BCFEF7A0BB03
:104C50000846FEF71FBC08461146FEF7B1BB704779
:104C6000044B00221A714FF47A711A73024A996048
:104C70001A6070473CB4FF1FC8BA000008461146CE
:104C8000FDF7E4BD08461146FDF7B2BD08B508467C
:104C9000FDF7CEFD08BDFFFF2DE9F843044625468C
:104CA00004301F460E46904600F077F9134B45F846
:104CB000383B04F1B00928460C3500F06EF94D453B
:104CC000F9D19DF8203084F8C4309DF8243084F860
:104CD000C5300A23C4F8C8304FF4FA73C4F8CC3096
:104CE0000023C4F8BC80C4F8C070C4F8B860C4F82D
:104CF000D030C4F8B4302046BDE8F883F0BA0000E4
:104D00002DE9F0470023044694F8C4205D1CDBB273
:104D10009A4209D92168D4F8BC200E68D15C20469B
:104D20000222B0472B46EFE7002694F8C530F5B2D3
:104D3000AB4242D92268D4F8C0301768595D20468A
:104D40000122B8472268D4F8C0305768595D204620
:104D500000224FF00109B84709FA05F96FEA090A7C
:104D60004FF0000894F8C43022685FFA88F7BB421D
:104D700012D9D4F8BC309268D95D20469047BF0064
:104D800027443B6910B943EA090301E003EA0A0337
:104D90003B6108F10108E5E7D4F8C0305768595D78
:104DA00020460122B8472268D4F8C0301768595D00
:104DB00020460022B8470136B7E7BDE8F087024633
:104DC000002318460C2303FB0023DB6B8B4204D02B
:104DD000431C0A2BF5D14FF0FF30704790F840008C
:104DE0007047C0F8D010704708B50C2303FB0101D1
:104DF000012381F84130D0F8D03081F8402013B140
:104E000090F83800984708BD0C2303FB010337B521
:104E1000002583F8415093F840300446032B25D8F1
:104E2000DFE803F0020E1C2002B320460122FFF748
:104E3000DBFF0F4B1B680093009BC4F8B03015E0FC
:104E40000B4B1B6801930198D4F8B030C01AD4F80A
:104E5000CC30984202D92046022205E032B92046E1
:104E6000032201E020460022FFF7BEFF03B030BD61
:104E70008CB1FF1F2DE9F04703460446002293F84A
:104E8000401031B94FF0FF3083F83810D86383F801
:104E900041100C32782A03F10C03F0D1002694F86B
:104EA000C430F7B2BB423BD9002594F8C580EBB2C1
:104EB000434533D23A1D08FB073854F8222022FA22
:104EC00003F9D4F8B8304146204613F808A0FFF79C
:104ED00076FF011E09F0010903DB2046C9B24A46EC
:104EE00014E0013118D1B9F1000F15D000230C22C4
:104EF00002FB0342D9B292F8380050B982F8400060
:104F000082F838A0C2F83C8020460122FFF77CFFDF
:104F100002E001330A2BEAD10135C6E70136BEE7CC
:104F200000231846E2180C3392F84120002A18BFDB
:104F30000120782BF6D1BDE8F087FFFF37B50D4D86
:104F40002B680093009AD0F8B430D21AD0F8C83049
:104F50009A4204460AD9FFF7D3FE2046FFF78AFF9C
:104F60002B680193019BC4F8B43000E0002003B02B
:104F700030BD00BF8CB1FF1F10B50446FFF7DEFF48
:104F800050B194F8410038B194F84030012B01D071
:104F9000002010BD94F8380010BD0022027002728B
:104FA0004272704713B502AB026803F8011D5468E2
:104FB00019460122A04702B010BD90F82530012B00
:104FC0001CBF0123037100207047704790F8253003
:104FD000012B06D842690369D01A48BF6FF0004020
:104FE000704700207047FFFF4FF47A7181600549D8
:104FF0000160002204210271027380F8251080F8FC
:105000002620704708BB0000044A0260042280F892
:105010002520002280F82620704700BF08BB000032
:105020002DE9F74F90F82530012B04468A4600F20F
:105030009D80016943695B1A9A4234BF16461E4639
:10504000002E00F09180DFF834B1C7699BF8002092
:105050004FF0010902F10908023F974009FA08F8E8
:10506000454A08F1FF3808EA010811680F4407EBC8
:105070005827C8F308080022B8F1000F31D001A862
:105080003946019200F0C2FA00B3C8F50075AE428D
:1050900000EB0801504605D23246FDF70FFA2369AE
:1050A000334437E02A46FDF709FA22692A4422618F
:1050B00001A800F041FA9BF8003009FA03F9013722
:1050C00009F1FF3917EA090F07D101E005463DE074
:1050D000204600F0EBFB002849D0B54247D2AA4455
:1050E00000E04546C5EB0609A846C5EB0A030022C9
:1050F000B9F5007F03EB080B019201A839460CD2E9
:1051000000F084FA014660B158464A46FDF7D6F9E8
:1051100023694B442361354618E05A4600F09BFA58
:1051200008B9454612E0236903F50073236101A81D
:1051300000F002FA114A1378012202FA03F3013750
:10514000013B1F4208F5007808D103E001A800F0F8
:10515000F3F90CE0204600F0A9FB18B1B045A9F521
:105160000079C2D3454602E0354600E000252846D6
:1051700003B0BDE8F08F00BF50B4FF1F54B4FF1F51
:1051800007B501220DF10701FFF74AFF01280CBF07
:105190009DF807004FF0FF3003B05DF804FB73B5D6
:1051A00001220DF1070104460669C569FFF738FFC2
:1051B000012805BF9DF8070026614FF0FF30E5612B
:1051C00002B070BD042380F82530002380F826301B
:1051D0007047FFFF10B5184B1A7802B372B61B78F0
:1051E000D90707D5154A1649146809682140154C96
:1051F000216011609A0707D5134A1149146849685C
:105200002140104C616011605B0707D50F4B0C4AC1
:10521000196892680A400B498A601A6062B60C4BA2
:10522000DA68824207D00B4A1A60D8600A4A40F016
:10523000804018611A6010BD7CC3FF1F80E100E050
:1052400064C3FF1F70C3FF1F84E100E088E100E03A
:1052500000C0024001401F0000001F800A4B1B7865
:105260008BB1D90703D5094A1168094A11609A0719
:1052700003D5064A5168074A11605B0703D5034B03
:105280009A68054B1A6070477CC3FF1F70C3FF1FED
:1052900000E100E004E100E008E100E02DE9F04178
:1052A0007F4B804D53F830302B6001247E4B86B00D
:1052B00021461C70FDF7CAFA2B6883F8804003F082
:1052C000FFFF4FF03840FFF785FF0522774B4FF087
:1052D0000041D96276495963D96A0029FCDA734BD7
:1052E0009B6B531E13F0FF02F0D1724C23680293A4
:1052F000029E00F03BFA012805460CD0FFF7AEFFF6
:1053000023680393039B9B1BFA2B18D84FF038405C
:10531000FFF760FFEDE700F036FAB0F1004F03D180
:10532000654B1D7000250CE0B0F5D57F05D1624BB3
:1053300002221A704FF0804503E0FFF78FFF002430
:10534000A9E023680493049F284600F031FA06463A
:1053500080B1FFF783FF012EF1D823680593059AEA
:1053600040F2DC53D21B9A42E9D84FF03840FFF7A5
:1053700031FFE9E7504C2378022B05D100F02FFADA
:10538000800F032808BF207006AD0024FFF766FFDA
:1053900045F8144D22462846214600F037F9B0F86A
:1053A000FE214AF655239A4201D0002470E090F87D
:1053B000C231062B02D00B3B012B01D8D0F8C641DD
:1053C000284600F0B9F821460022284600F01EF9D0
:1053D000B0F8FE114AF6552291420346E5D1B0F8E5
:1053E0000B20B2F5007FE0D1027C022ADDD1C68914
:1053F000002EDAD090F80DC0304AC08ABCFA8CFC7E
:10540000CCF11F0C82F800C000B9586AB3F811E063
:10541000B3F813700EF10F01090907B91F6A284A82
:10542000344414600219274CBE1B226000EB0108B3
:10543000254C711A9044A1EB4001C4F8008021FA78
:105440000CF1224C4E1C266040F6F474A142ACD9FB
:105450004FF6F474A1421E491E4C08D810230B705D
:1054600010444FEA4E136361A061032306E020223B
:10547000DB6A0A700022A3616261022384F825308E
:10548000A369E36128460023236100F055F8012455
:10549000284600F051F8204606B0BDE8F08100BF74
:1054A00034B80000F0C2FF1FF5C2FF1F00C0024069
:1054B000FFFF00108CB1FF1FF4C2FF1F54B4FF1F89
:1054C0008CB4FF1F4CB4FF1F50B4FF1F94B4FF1FD8
:1054D00090B4FF1F58B4FF1F10B5054C2046FFF7CE
:1054E00083FD20460349044ABDE8104004F0DAB8C1
:1054F00058B4FF1F095000003C9CFF1F72B60C4BB4
:105500004FF0FF320A49C3F80022002283F8082234
:1055100083F8092201F6546003F50373834243F8CC
:10552000083CEDD343F8082C024B196062B6704773
:105530009CB4FF1F98B4FF1F03684BB172B6036899
:1055400093F80822013A83F8082262B60023036028
:105550007047FFFF2DE9F8432B4B90461A6806462B
:105560000F4699460AB9FFF7C9FF306830B1D0F845
:105570000032BB4246D03046FFF7DEFF72B6D9F8A4
:10558000001000200B4604460546D3F80022BA421C
:1055900012D13DB1D3F80422C5F80422C9F8003075
:1055A000C3F8041293F80822013283F8082262B685
:1055B00033601846BDE8F88393F80822002AD3F830
:1055C000042218BF054608BF1C461AB128461D46CE
:1055D0001346DAE7B8F1000F12D08CB13DB1D4F820
:1055E0000432C5F80432C9F80040C4F8041201239B
:1055F00084F808320023C4F8007284F80932346059
:1056000062B63068BDE8F88398B4FF1F70B50446F1
:105610000D464FF038401646FFF7DCFD2046294680
:105620000122FFF797FF08B9002410E090F8093233
:10563000DB0704460BD42846214600F0E3F8002897
:10564000F2D00EB9012300E0052384F80932FFF7F8
:1056500005FE204670BDF8B505460E464FF03840B1
:105660001746FFF7B7FD284631460022FFF772FFC5
:10567000044618B190F80932DA0705D430463946A5
:1056800000F0C0F8064600E00126FFF7E7FD8CB108
:1056900094F80932DB070AD521464FF400723846E8
:1056A000FCF70CFF2846FFF747FF0120F8BD28460E
:1056B000FFF742FF3046F8BD054B4FF00042DA627B
:1056C0005863DA6A002AFCDA014B986BC0B2704763
:1056D00000C00240064B4FF0004240F08050DA62BA
:1056E0005863DA6A002AFCDA014B986B80B2704783
:1056F00000C0024038B50A4B1B6801220C4683F8F3
:1057000000210546000AFFF7D7FF200CFFF7E2FF54
:10571000A0B2FFF7DFFFE8B2FFF7CEFF38BD00BF52
:10572000F0C2FF1F10B50924FF20FFF7C5FF0306D5
:1057300003D5013C14F0FF04F6D110BD10B54FF6AF
:10574000FF70FFF7C7FF04044FF6FF70FFF7C2FFBB
:10575000204310BD08B5044B1B68012283F880204C
:10576000FF20FFF7A9FF08BDF0C2FF1F10B5002101
:1057700044F29500FFF7BEFFFFF7D4FF0446FFF7A2
:10578000E9FF204610BD10B544F687004FF4D571EF
:10579000FFF7B0FFFFF7C6FF012818BF4FF0004426
:1057A00002D1FFF7CBFF0446FFF7D4FF204610BD20
:1057B00010B50021044647F2FF70FFF79BFFFFF78B
:1057C000B1FFFFF7C7FF214646F6FF10FFF792FF34
:1057D000FFF7A8FF0446FFF7BDFF204610BD10B538
:1057E00047F6FF200021FFF785FFFFF79BFF18B961
:1057F000FFF7A4FF044600E00024FFF7ABFF2046BC
:1058000010BDFFFF10B5254A1278012A034698BF44
:1058100043020C4645F2FF101946FFF76BFFFFF7F6
:1058200081FF28B1FFF796FF002010BDFF28F9D1B6
:10583000FF20FFF741FFFE28F8D1194B194A5A63A0
:105840005A630023164AD16A11F0F00FFAD01549B5
:105850005163926B110AE154E1180233B3F5FF7FF3
:105860004A70EFD10E4BDA6A12F0F00FFAD09A6B51
:1058700084F8FF21110A84F8FE11DA6A12F0F00FA1
:10588000FBD0074B9B6B084B1B68012483F88040BF
:10589000FF20FFF711FF204610BD00BFF4C2FF1F1D
:1058A00000C00240FFFF0010F0C2FF1F73B502AC42
:1058B000002344F8043D164BC5691968154B1B7845
:1058C000102B064620460BD101EB15210122FFF7D4
:1058D0009DFE08B9002515E0EDB230F815300AE05C
:1058E00001EBD5110122FFF791FE0028F2D005F05F
:1058F0007F0550F82530084AF3611568AB428CBF2C
:10590000002501252046FFF717FE284602B070BD8E
:105910008CB4FF1F90B4FF1F94B4FF1F0369D3F82A
:105920003801D3F83431C01A704770470369D3F88F
:105930004422B2F5817F09D8D3F84422501CC3F821
:1059400044021344012083F83C1170470123037182
:105950000020704730B50469D4F84432B3F5817F34
:105960001DD8D4F84432D4F84452C3F581730133BE
:105970002C449A4204F59E7402D9012202711A46FF
:105980000023934203D0CD5CE5540133F9E702696B
:10599000D2F844121944C2F84412184630BD01230B
:1059A0000371002030BDFFFF38B5094B0360036968
:1059B00093F84822022A044608D1D3F864522DB144
:1059C000284603F007FC284603F020FC204638BD9B
:1059D00028BB0000C3681A789207FCD502221A700F
:1059E0007047FFFF002210B502710273064A026081
:1059F0004FF47A74054A84604FF41B74417304FBBE
:105A00000121016110BD00BF28BB0000649EFF1F83
:105A1000012814BF012002207047FFFFF8B5C368BA
:105A20001B789B0604460E4600F19A80836880210D
:105A30001970C3681221197090F84932012B03D0F4
:105A40001AB980F8482200E01A46531E012B00F2D2
:105A5000898016B94FF0807103E0012E03D14FF019
:105A60000071414B1960022A76D1D4F8645245B9CD
:105A7000082003F0C9FB2946074603F057FBC4F88A
:105A80006472D4F8645265B12B79102B09D1284681
:105A900003F0A0FB284603F0B9FB0023C4F86432EE
:105AA0005AE046BB2B6831489A8B998B92B242F0F0
:105AB00008029A832A792E4B02F1100143F8210043
:105AC00053119B0003F1604303F56143012102F090
:105AD0001F0201FA02F21A602B689A8B998B92B21C
